{
  "contractName": "KycStorage",
  "abi": [
    {
      "inputs": [
        {
          "internalType": "string",
          "name": "kycId",
          "type": "string"
        },
        {
          "internalType": "string",
          "name": "ipfsHash",
          "type": "string"
        },
        {
          "internalType": "string",
          "name": "ipfsCipherKey",
          "type": "string"
        }
      ],
      "name": "setData",
      "outputs": [
        {
          "internalType": "bool",
          "name": "",
          "type": "bool"
        }
      ],
      "stateMutability": "nonpayable",
      "type": "function"
    },
    {
      "inputs": [
        {
          "internalType": "string",
          "name": "kycId",
          "type": "string"
        }
      ],
      "name": "getData",
      "outputs": [
        {
          "internalType": "string",
          "name": "",
          "type": "string"
        },
        {
          "internalType": "string",
          "name": "",
          "type": "string"
        },
        {
          "internalType": "string",
          "name": "",
          "type": "string"
        }
      ],
      "stateMutability": "view",
      "type": "function",
      "constant": true
    }
  ],
  "bytecode": "0x608060405234801561001057600080fd5b50610833806100206000396000f3fe608060405234801561001057600080fd5b50600436106100365760003560e01c8063280af7d31461003b578063ae55c8881461006b575b600080fd5b6100556004803603810190610050919061054f565b61009d565b6040516100629190610611565b60405180910390f35b6100856004803603810190610080919061062c565b610148565b604051610094939291906106fd565b60405180910390f35b6000806040518060600160405280858152602001848152602001600115158152509050806000866040516100d19190610785565b908152602001604051809103902060008201518160000190805190602001906100fb929190610352565b506020820151816001019080519060200190610118929190610352565b5060408201518160020160006101000a81548160ff02191690831515021790555090505060019150509392505050565b6060806060600015156000856040516101619190610785565b908152602001604051809103902060020160009054906101000a900460ff16151514156101e9576040518060400160405280601381526020017f4461746120646f65736e27742065786973747300000000000000000000000000815250604051806020016040528060008152506040518060200160405280600081525092509250925061034b565b836000856040516101fa9190610785565b908152602001604051809103902060000160008660405161021b9190610785565b9081526020016040518091039020600101818054610238906107cb565b80601f0160208091040260200160405190810160405280929190818152602001828054610264906107cb565b80156102b15780601f10610286576101008083540402835291602001916102b1565b820191906000526020600020905b81548152906001019060200180831161029457829003601f168201915b505050505091508080546102c4906107cb565b80601f01602080910402602001604051908101604052809291908181526020018280546102f0906107cb565b801561033d5780601f106103125761010080835404028352916020019161033d565b820191906000526020600020905b81548152906001019060200180831161032057829003601f168201915b505050505090509250925092505b9193909250565b82805461035e906107cb565b90600052602060002090601f01602090048101928261038057600085556103c7565b82601f1061039957805160ff19168380011785556103c7565b828001600101855582156103c7579182015b828111156103c65782518255916020019190600101906103ab565b5b5090506103d491906103d8565b5090565b5b808211156103f15760008160009055506001016103d9565b5090565b6000604051905090565b600080fd5b600080fd5b600080fd5b600080fd5b6000601f19601f8301169050919050565b7f4e487b7100000000000000000000000000000000000000000000000000000000600052604160045260246000fd5b61045c82610413565b810181811067ffffffffffffffff8211171561047b5761047a610424565b5b80604052505050565b600061048e6103f5565b905061049a8282610453565b919050565b600067ffffffffffffffff8211156104ba576104b9610424565b5b6104c382610413565b9050602081019050919050565b82818337600083830152505050565b60006104f26104ed8461049f565b610484565b90508281526020810184848401111561050e5761050d61040e565b5b6105198482856104d0565b509392505050565b600082601f83011261053657610535610409565b5b81356105468482602086016104df565b91505092915050565b600080600060608486031215610568576105676103ff565b5b600084013567ffffffffffffffff81111561058657610585610404565b5b61059286828701610521565b935050602084013567ffffffffffffffff8111156105b3576105b2610404565b5b6105bf86828701610521565b925050604084013567ffffffffffffffff8111156105e0576105df610404565b5b6105ec86828701610521565b9150509250925092565b60008115159050919050565b61060b816105f6565b82525050565b60006020820190506106266000830184610602565b92915050565b600060208284031215610642576106416103ff565b5b600082013567ffffffffffffffff8111156106605761065f610404565b5b61066c84828501610521565b91505092915050565b600081519050919050565b600082825260208201905092915050565b60005b838110156106af578082015181840152602081019050610694565b838111156106be576000848401525b50505050565b60006106cf82610675565b6106d98185610680565b93506106e9818560208601610691565b6106f281610413565b840191505092915050565b6000606082019050818103600083015261071781866106c4565b9050818103602083015261072b81856106c4565b9050818103604083015261073f81846106c4565b9050949350505050565b600081905092915050565b600061075f82610675565b6107698185610749565b9350610779818560208601610691565b80840191505092915050565b60006107918284610754565b915081905092915050565b7f4e487b7100000000000000000000000000000000000000000000000000000000600052602260045260246000fd5b600060028204905060018216806107e357607f821691505b602082108114156107f7576107f661079c565b5b5091905056fea2646970667358221220505642b3d9f644e9a5ec1328e24611577fd7c72ddac243d96106b9ff3642b72c64736f6c634300080a0033",
  "immutableReferences": {},
  "source": "pragma solidity ^0.8.4;\n\ncontract KycStorage{\n\n    struct UsersKyc {\n        string ipfsHash;\n        string ipfsCipherKey;\n        bool isValue;\n    }\n\n    mapping(string => UsersKyc) data; \n\n    function setData(string memory kycId,string memory ipfsHash,string memory ipfsCipherKey) public returns (bool){\n        UsersKyc memory user = UsersKyc(ipfsHash,ipfsCipherKey,true);\n        data[kycId] = user;\n        return true;\n    }\n\n    function getData(string memory kycId) public view returns (string memory,string memory,string memory){\n        if(data[kycId].isValue == false){\n            return (\"Data doesn't exists\",\"\",\"\");\n        }\n        return (kycId,data[kycId].ipfsHash,data[kycId].ipfsCipherKey);\n    }\n}\n\n",
  "sourcePath": "/home/hrushi/Programming/Hackathon/bKyc/bkyc/src/truffle/contracts/KycStorage.sol",
  "compiler": {
    "name": "solc",
    "version": "0.8.10+commit.fc410830.Emscripten.clang"
  },
  "schemaVersion": "3.4.4",
  "updatedAt": "2022-01-15T10:29:18.307Z",
  "networkType": "ethereum",
  "devdoc": {
    "kind": "dev",
    "methods": {},
    "version": 1
  },
  "userdoc": {
    "kind": "user",
    "methods": {},
    "version": 1
  }
}